{
  "_format": "hh3-artifact-1",
  "contractName": "ContractCreationTester",
  "sourceName": "solidity/ContractCreationTester.sol",
  "abi": [
    {
      "anonymous": false,
      "inputs": [
        {
          "indexed": true,
          "internalType": "address",
          "name": "contractAddr",
          "type": "address"
        },
        {
          "indexed": false,
          "internalType": "uint256",
          "name": "value",
          "type": "uint256"
        }
      ],
      "name": "ContractCreated",
      "type": "event"
    },
    {
      "anonymous": false,
      "inputs": [
        {
          "indexed": false,
          "internalType": "string",
          "name": "operation",
          "type": "string"
        },
        {
          "indexed": false,
          "internalType": "bool",
          "name": "success",
          "type": "bool"
        }
      ],
      "name": "OperationCompleted",
      "type": "event"
    },
    {
      "anonymous": false,
      "inputs": [
        {
          "indexed": true,
          "internalType": "address",
          "name": "recipient",
          "type": "address"
        },
        {
          "indexed": false,
          "internalType": "uint256",
          "name": "amount",
          "type": "uint256"
        }
      ],
      "name": "ValueSent",
      "type": "event"
    },
    {
      "inputs": [
        {
          "internalType": "uint256",
          "name": "creationValue",
          "type": "uint256"
        }
      ],
      "name": "createAndRevert",
      "outputs": [
        {
          "internalType": "contract SimpleReceiver",
          "name": "",
          "type": "address"
        }
      ],
      "stateMutability": "payable",
      "type": "function"
    },
    {
      "inputs": [
        {
          "internalType": "uint256",
          "name": "",
          "type": "uint256"
        }
      ],
      "name": "createdContracts",
      "outputs": [
        {
          "internalType": "address",
          "name": "",
          "type": "address"
        }
      ],
      "stateMutability": "view",
      "type": "function"
    },
    {
      "inputs": [
        {
          "internalType": "uint256",
          "name": "index",
          "type": "uint256"
        }
      ],
      "name": "getCreatedContract",
      "outputs": [
        {
          "internalType": "address",
          "name": "",
          "type": "address"
        }
      ],
      "stateMutability": "view",
      "type": "function"
    },
    {
      "inputs": [],
      "name": "getCreatedContractsCount",
      "outputs": [
        {
          "internalType": "uint256",
          "name": "",
          "type": "uint256"
        }
      ],
      "stateMutability": "view",
      "type": "function"
    },
    {
      "inputs": [
        {
          "internalType": "string",
          "name": "validatorAddr",
          "type": "string"
        },
        {
          "internalType": "uint256",
          "name": "delegateAmount1",
          "type": "uint256"
        },
        {
          "internalType": "uint256",
          "name": "creationValue",
          "type": "uint256"
        },
        {
          "internalType": "uint256",
          "name": "delegateAmount2",
          "type": "uint256"
        }
      ],
      "name": "scenario4_delegateCreateDelegate",
      "outputs": [],
      "stateMutability": "payable",
      "type": "function"
    },
    {
      "inputs": [
        {
          "internalType": "string",
          "name": "validatorAddr",
          "type": "string"
        },
        {
          "internalType": "uint256",
          "name": "delegateAmount1",
          "type": "uint256"
        },
        {
          "internalType": "uint256",
          "name": "creationValue",
          "type": "uint256"
        },
        {
          "internalType": "uint256",
          "name": "delegateAmount2",
          "type": "uint256"
        }
      ],
      "name": "scenario5_delegateCreateRevertDelegate",
      "outputs": [],
      "stateMutability": "payable",
      "type": "function"
    },
    {
      "inputs": [
        {
          "internalType": "uint256",
          "name": "creationValue1",
          "type": "uint256"
        },
        {
          "internalType": "string",
          "name": "validatorAddr",
          "type": "string"
        },
        {
          "internalType": "uint256",
          "name": "delegateAmount",
          "type": "uint256"
        },
        {
          "internalType": "uint256",
          "name": "creationValue2",
          "type": "uint256"
        }
      ],
      "name": "scenario6_createRevertDelegateCreateRevert",
      "outputs": [],
      "stateMutability": "payable",
      "type": "function"
    },
    {
      "inputs": [
        {
          "internalType": "uint256",
          "name": "creationValue",
          "type": "uint256"
        },
        {
          "internalType": "string",
          "name": "validatorAddr",
          "type": "string"
        },
        {
          "internalType": "uint256",
          "name": "delegateAmount",
          "type": "uint256"
        },
        {
          "internalType": "uint256",
          "name": "sendAmount",
          "type": "uint256"
        }
      ],
      "name": "scenario7_createDelegateRevertSend",
      "outputs": [],
      "stateMutability": "payable",
      "type": "function"
    },
    {
      "inputs": [
        {
          "internalType": "uint256",
          "name": "revertCreationValue",
          "type": "uint256"
        },
        {
          "internalType": "string",
          "name": "validatorAddr",
          "type": "string"
        },
        {
          "internalType": "uint256",
          "name": "delegateAmount",
          "type": "uint256"
        },
        {
          "internalType": "uint256",
          "name": "successCreationValue",
          "type": "uint256"
        }
      ],
      "name": "scenario8_createRevertDelegateCreateSuccess",
      "outputs": [],
      "stateMutability": "payable",
      "type": "function"
    },
    {
      "stateMutability": "payable",
      "type": "receive"
    }
  ],
  "bytecode": "0x6080806040523461001657611004908161001b8239f35b5f80fdfe60406080815260048036101561001e575b5050361561001c575f80fd5b005b5f91823560e01c80630881139714610a9b5780637a0aaa5b146108a25780637d5b95391461076d578063aabf108614610595578063b203934e14610578578063c242737f146104fa578063c53e5ae31461044b578063e71b671a1461025e5763edab92991461008d5750610010565b61009636610bc9565b919290948451906353266bbb60e01b808352826100b96020978630868501610c1a565b0392868161080095818d885af1801561025457610237575b508651975f80516020610faf83398151915289806100ef839c610c74565b0390a187516101e9808201908282106001600160401b03831117610224579189818e9593829a99989795610da6833986815203019082f087816101e4575050508960808a518b815260068c8201526563726561746560d01b60608201528489820152a15b61016a895197889687958694855230908501610c1a565b03925af180156101da576101ac575b5050516040808252600990820152683232b632b3b0ba329960b91b60608201526001602082015280608081015b0390a180f35b816101cb92903d106101d3575b6101c38183610af5565b810190610c02565b505f80610179565b503d6101b9565b83513d87823e3d90fd5b6001600160a01b03909116915f80516020610f8f833981519152919061020984610c9f565b8c51908152a28989518061021c81610cda565b0390a1610153565b634e487b7160e01b8d526041865260248dfd5b61024d90873d89116101d3576101c38183610af5565b505f6100d1565b88513d8c823e3d90fd5b506102d761026b36610b8f565b93919085519163c53e5ae360e01b83528488840152602094838680826024829886305af18c928161041c575b506103cf575050505f80516020610faf8339815191528751806102b981610d4a565b0390a15b86516353266bbb60e01b81529384928392308b8501610c1a565b0381896108005af180156103c5576103a8575b508251935f80516020610faf83398151915285806103088398610d7b565b0390a18351906101e9808301918383106001600160401b03841117610395575083918391610da6833988815203019083f080156101da576001600160a01b0316915f80516020610f8f833981519152919061036284610c9f565b8451908152a25160408082526007908201526631b932b0ba329960c91b60608201526001602082015280608081016101a6565b634e487b7160e01b895260419052602488fd5b6103be90823d84116101d3576101c38183610af5565b505f6102ea565b84513d88823e3d90fd5b6001600160a01b03909116915f80516020610f8f83398151915291906103f484610c9f565b8a51908152a25f80516020610faf83398151915287518061041481610d21565b0390a16102bd565b61043d919350823d8411610444575b6104358183610af5565b810190610d02565b915f610297565b503d61042b565b508260203660031901126104f75781516101e9808201908282106001600160401b038311176104e4576020918391610da683398481520301908435f0156104d957815162461bcd60e51b8152602081850152602160248201527f496e74656e74696f6e616c20726576657274206166746572206372656174696f6044820152603760f91b6064820152608490fd5b9051903d90823e3d90fd5b634e487b7160e01b845260418652602484fd5b80fd5b50919034610574576020366003190112610574578035915482101561053b5760208361052584610ac9565b905491519160018060a01b039160031b1c168152f35b606490602084519162461bcd60e51b83528201526013602482015272496e646578206f7574206f6620626f756e647360681b6044820152fd5b5080fd5b838234610574578160031936011261057457602091549051908152f35b5061061290836105a436610b8f565b91959085519063c53e5ae360e01b97888352858a84015260209583878082602482988d305af18a928161074e575b50610701575050505f80516020610faf8339815191528851806105f481610d4a565b0390a15b87516353266bbb60e01b81529384928392308d8501610c1a565b0381876108005af180156106f7576106da575b50808451965f80516020610faf8339815191528880610644839b610d7b565b0390a18551968752860152818560248186305af1809584966106bb575b5061069657506080935060108351938085528401526f18dc99585d194c97dc995d995c9d195960821b6060840152820152a180f35b92936001600160a01b0316925f80516020610f8f833981519152925061036284610c9f565b6106d3919650833d8511610444576104358183610af5565b945f610661565b6106f090833d85116101d3576101c38183610af5565b505f610625565b85513d86823e3d90fd5b6001600160a01b03909116915f80516020610f8f833981519152919061072684610c9f565b8b51908152a25f80516020610faf83398151915288518061074681610d21565b0390a16105f8565b610766919350823d8411610444576104358183610af5565b915f6105d2565b509061077836610bc9565b90949283516353266bbb60e01b958682528161079a6020968530858501610c1a565b0391858161080094818d875af180156108985761087b575b508551965f80516020610faf83398151915288806107d0839b610c74565b0390a186516101e9808201908282106001600160401b0383111761086857828d9493928a92610da683398581520301908bf0998a1561085e575f80516020610f8f83398151915288809a9b9c60018060a09c9b9c1b03169261083184610c9f565b8c51908152a28989518061084481610cda565b0390a161016a895197889687958694855230908501610c1a565b88513d84823e3d90fd5b634e487b7160e01b8d526041855260248dfd5b61089190863d88116101d3576101c38183610af5565b505f6107b2565b87513d8c823e3d90fd5b506108ac36610b8f565b908495929551936101e9808601908682106001600160401b03831117610a8857908691610da68339898152602096879103019082f08015610a7e576001600160a01b031692916109559186919085905f80516020610f8f83398151915290849061091584610c9f565b8b51908152a28751985f80516020610faf8339815191528a80610938839d610cda565b0390a188516353266bbb60e01b81529384928392308a8501610c1a565b03818b6108005af19081610a61575b50610a4c5785608086518781526008888201526764656c656761746560c01b60608201528987820152a15b8680808084865af13d15610a47573d6109a781610b2a565b906109b488519283610af5565b815288863d92013e5b15610a10579183917ffb17d0033e42e6a76759d2c7c2795a304dfbba80679160ae60dc91aad4966e52869560019560809851908152a2835193808552840152631cd95b9960e21b6060840152820152a180f35b845162461bcd60e51b8152808401859052601160248201527015985b1d59481cd95b990819985a5b1959607a1b6044820152606490fd5b6109bd565b85855180610a5981610d7b565b0390a161098f565b610a7790863d88116101d3576101c38183610af5565b505f610964565b86513d8a823e3d90fd5b634e487b7160e01b8a526041865260248afd5b509034610ac5576020366003190112610ac557359180548310156104f75750610525602092610ac9565b8280fd5b905f918254811015610ae15782805260208320019190565b634e487b7160e01b83526032600452602483fd5b90601f801991011681019081106001600160401b03821117610b1657604052565b634e487b7160e01b5f52604160045260245ffd5b6001600160401b038111610b1657601f01601f191660200190565b81601f82011215610b8b57803590610b5c82610b2a565b92610b6a6040519485610af5565b82845260208383010111610b8b57815f926020809301838601378301015290565b5f80fd5b906080600319830112610b8b5760043591602435906001600160401b038211610b8b57610bbe91600401610b45565b906044359060643590565b6080600319820112610b8b57600435906001600160401b038211610b8b57610bf391600401610b45565b90602435906044359060643590565b90816020910312610b8b57518015158103610b8b5790565b9392919060018060a01b0316845260206060818601528151918260608701525f5b838110610c60575050506080815f8260409488010152601f8019910116850101930152565b818101830151878201608001528201610c3b565b9060408252600960408301526864656c65676174653160b81b60608301526001602060808401930152565b5f54600160401b811015610b1657806001610cbc92015f55610ac9565b819291549060031b9160018060a01b03809116831b921b1916179055565b9060408252600660408301526563726561746560d01b60608301526001602060808401930152565b90816020910312610b8b57516001600160a01b0381168103610b8b5790565b906040825260076040830152666372656174653160c81b60608301526001602060808401930152565b9060408252601060408301526f18dc99585d194c57dc995d995c9d195960821b60608301525f602060808401930152565b9060408252600860408301526764656c656761746560c01b6060830152600160206080840193015256fe6080601f6101e938819003918201601f19168301916001600160401b038311848410176100de578084926020946040528339810103126100da575180151581036100da57610095573360018060a01b03196001541617600155345f556040513481527fb263f5c1dda4b5b44a8d5658a105c64b6ec61c79463b79a1d0052a834d00fdc460203392a260405160f690816100f38239f35b60405162461bcd60e51b815260206004820152601e60248201527f496e74656e74696f6e616c20636f6e7374727563746f722072657665727400006044820152606490fd5b5f80fd5b634e487b7160e01b5f52604160045260245ffdfe6080806040526004361015603b575b5036156018575f80fd5b5f543481018091116027575f55005b634e487b7160e01b5f52601160045260245ffd5b5f90813560e01c90816302d05d3f146099575080632096525514607e57633fa4f24503600e5734607b5780600319360112607b5760209054604051908152f35b80fd5b5034607b5780600319360112607b5760209054604051908152f35b90503460bc578160031936011260bc576001546001600160a01b03168152602090f35b5080fdfea2646970667358221220ce8e9db4668f7bbb9824eaabdca215a30e571bb0f48c2cb0f698a8e8abc681ae64736f6c634300081400331dc05c1d6a563dddb6c22082af72b54ec2f0207ceb55db5d13cdabc208f303a99f4d25774676d497fe3d8c1e43709b68b186fad01b05798c1410a178ff4ed7d0a264697066735822122054c08ab623063accdd988fb07fb40e2096d7699b58c373540b6cebeb2760914164736f6c63430008140033",
  "linkReferences": {},
  "deployedLinkReferences": {},
  "immutableReferences": {},
  "inputSourceName": "project/solidity/ContractCreationTester.sol",
  "buildInfoId": "solc-0_8_20-a1f91ec3b065d50730c0367f861277c93634d90c"
}