{
  "_format": "hh3-artifact-1",
  "contractName": "SequentialOperationsTester",
  "sourceName": "solidity/SequentialOperationsTester.sol",
  "abi": [
    {
      "anonymous": false,
      "inputs": [
        {
          "indexed": false,
          "internalType": "string",
          "name": "label",
          "type": "string"
        },
        {
          "indexed": false,
          "internalType": "uint256",
          "name": "balance",
          "type": "uint256"
        }
      ],
      "name": "BalanceChecked",
      "type": "event"
    },
    {
      "anonymous": false,
      "inputs": [
        {
          "indexed": false,
          "internalType": "string",
          "name": "label",
          "type": "string"
        },
        {
          "indexed": false,
          "internalType": "uint256",
          "name": "count",
          "type": "uint256"
        }
      ],
      "name": "EventCountChecked",
      "type": "event"
    },
    {
      "anonymous": false,
      "inputs": [
        {
          "indexed": false,
          "internalType": "string",
          "name": "operation",
          "type": "string"
        },
        {
          "indexed": false,
          "internalType": "bool",
          "name": "success",
          "type": "bool"
        }
      ],
      "name": "OperationCompleted",
      "type": "event"
    },
    {
      "inputs": [],
      "name": "getContractBalance",
      "outputs": [
        {
          "internalType": "uint256",
          "name": "",
          "type": "uint256"
        }
      ],
      "stateMutability": "view",
      "type": "function"
    },
    {
      "inputs": [
        {
          "internalType": "address",
          "name": "account",
          "type": "address"
        }
      ],
      "name": "getNativeBalance",
      "outputs": [
        {
          "internalType": "uint256",
          "name": "",
          "type": "uint256"
        }
      ],
      "stateMutability": "view",
      "type": "function"
    },
    {
      "inputs": [
        {
          "internalType": "address",
          "name": "token",
          "type": "address"
        },
        {
          "internalType": "address",
          "name": "account",
          "type": "address"
        }
      ],
      "name": "getTokenBalance",
      "outputs": [
        {
          "internalType": "uint256",
          "name": "",
          "type": "uint256"
        }
      ],
      "stateMutability": "view",
      "type": "function"
    },
    {
      "inputs": [
        {
          "internalType": "address",
          "name": "token",
          "type": "address"
        },
        {
          "internalType": "address",
          "name": "recipient",
          "type": "address"
        },
        {
          "internalType": "uint256",
          "name": "amount",
          "type": "uint256"
        },
        {
          "internalType": "string",
          "name": "validatorAddr",
          "type": "string"
        },
        {
          "internalType": "uint256",
          "name": "delegateAmount",
          "type": "uint256"
        }
      ],
      "name": "scenario1_transferDelegateTransfer",
      "outputs": [],
      "stateMutability": "nonpayable",
      "type": "function"
    },
    {
      "inputs": [
        {
          "internalType": "address",
          "name": "token",
          "type": "address"
        },
        {
          "internalType": "address",
          "name": "recipient",
          "type": "address"
        },
        {
          "internalType": "uint256",
          "name": "amount",
          "type": "uint256"
        },
        {
          "internalType": "string",
          "name": "validatorAddr",
          "type": "string"
        },
        {
          "internalType": "uint256",
          "name": "delegateAmount",
          "type": "uint256"
        }
      ],
      "name": "scenario2_transferDelegateRevertTransfer",
      "outputs": [],
      "stateMutability": "nonpayable",
      "type": "function"
    },
    {
      "inputs": [
        {
          "internalType": "address payable",
          "name": "recipient",
          "type": "address"
        },
        {
          "internalType": "uint256",
          "name": "amount",
          "type": "uint256"
        },
        {
          "internalType": "string",
          "name": "validatorAddr",
          "type": "string"
        },
        {
          "internalType": "uint256",
          "name": "delegateAmount",
          "type": "uint256"
        }
      ],
      "name": "scenario3_nativeTransferDelegateNativeTransfer",
      "outputs": [],
      "stateMutability": "payable",
      "type": "function"
    },
    {
      "inputs": [
        {
          "internalType": "address payable",
          "name": "recipient",
          "type": "address"
        },
        {
          "internalType": "uint256",
          "name": "amount",
          "type": "uint256"
        },
        {
          "internalType": "string",
          "name": "validatorAddr",
          "type": "string"
        },
        {
          "internalType": "uint256",
          "name": "delegateAmount",
          "type": "uint256"
        }
      ],
      "name": "scenario4_nativeTransferDelegateRevertNativeTransfer",
      "outputs": [],
      "stateMutability": "payable",
      "type": "function"
    },
    {
      "inputs": [
        {
          "internalType": "address payable",
          "name": "recipient",
          "type": "address"
        },
        {
          "internalType": "uint256",
          "name": "amount",
          "type": "uint256"
        }
      ],
      "name": "testNativeTransfer",
      "outputs": [
        {
          "internalType": "bool",
          "name": "",
          "type": "bool"
        }
      ],
      "stateMutability": "payable",
      "type": "function"
    },
    {
      "stateMutability": "payable",
      "type": "receive"
    }
  ],
  "bytecode": "0x6080806040523461001657610ab0908161001b8239f35b5f80fdfe6040608081526004908136101561001f575b5050361561001d575f80fd5b005b5f91823560e01c908163456503c8146105625781635b3d97d5146104a05781635c3f86c9146103875781636e348ad6146101ad5781636f9fb98a14610192578163c489744b146100e257508063e1f756c3146100a75763efd8be620361001157346100a35760203660031901126100a35760209061009b610692565b319051908152f35b5080fd5b50806003193601126100a3578180806020946100c1610692565b602435906001600160a01b03165af1906100d9610961565b50519015158152f35b919050346101785780600319360112610178576100fd610692565b916024356001600160a01b038181169182900361018e57602092602491855196879485936370a0823160e01b8552840152165afa918215610184578392610149575b6020838351908152f35b9091506020813d821161017c575b81610164602093836106ac565b81010312610178576020925051905f61013f565b8280fd5b3d9150610157565b81513d85823e3d90fd5b8580fd5b5050346100a357816003193601126100a35751478152602090f35b905034610178576101bd36610744565b865163a9059cbb60e01b8082526001600160a01b038681168984019081526020808201889052949a959995989497959490911693928b9291889082908190604001038186895af190811561037d579a610222899261025c9d8691610360575b50610800565b89519a5f80516020610a5b8339815191528c8061023f839f610844565b0390a18a516353266bbb60e01b81529c8d9283923089850161086f565b0381856108005af1998a15610356578798999a979697610339575b5089895180610285816108c9565b0390a16102b28951978896879586948552840160209093929193604081019460018060a01b031681520152565b03925af191821561032f57906102d192918692610302575b505061091c565b516040808252600990820152683a3930b739b332b91960b91b60608201526001602082015280608081015b0390a180f35b6103219250803d10610328575b61031981836106ac565b8101906107e8565b5f806102ca565b503d61030f565b83513d87823e3d90fd5b61034f90873d89116103285761031981836106ac565b505f610277565b88513d84823e3d90fd5b6103779150843d86116103285761031981836106ac565b5f61021c565b89513d85823e3d90fd5b91905061043783808080602061039c3661079e565b91936001600160a01b0390931692906103c48680808089895af16103be610961565b50610990565b8a519b5f80516020610a5b8339815191528d80829f6103e2906109dc565b0390a16104028c5194859384936353266bbb60e01b85523090850161086f565b0381876108005af19081610482575b5061046d5788885180610423816108f3565b0390a15b5af1610431610961565b50610a0e565b5160408082526010908201526f3730ba34bb32afba3930b739b332b91960811b60608201526001602082015280608081016102fc565b8888518061047a816108c9565b0390a1610427565b6104999060203d81116103285761031981836106ac565b505f610411565b9190508260206104af3661079e565b91936001600160a01b0390931692906104d18680808089895af16103be610961565b8651975f80516020610a5b83398151915289806104ee839c6109dc565b0390a161050e885194859384936353266bbb60e01b85523090850161086f565b0381876108005af1801561055857938093819382936104379761053a575b5088885180610423816108c9565b6105519060203d81116103285761031981836106ac565b505f61052c565b85513d86823e3d90fd5b9050346101785761057236610744565b865163a9059cbb60e01b8082526001600160a01b038681168984019081526020808201889052949a959995989497959490911693928b9291889082908190604001038186895af190811561037d579780999a9b6105db61061593839a9b87916103605750610800565b8b519c5f80516020610a5b8339815191528e819f6105f881610844565b0390a18c516353266bbb60e01b81529384928392308a850161086f565b0381866108005af19081610675575b506106605789895180610285816108f3565b6102b28951978896879586948552840160209093929193604081019460018060a01b031681520152565b8989518061066d816108c9565b0390a1610636565b61068b90883d8a116103285761031981836106ac565b505f610624565b600435906001600160a01b03821682036106a857565b5f80fd5b90601f8019910116810190811067ffffffffffffffff8211176106ce57604052565b634e487b7160e01b5f52604160045260245ffd5b67ffffffffffffffff81116106ce57601f01601f191660200190565b81601f820112156106a857803590610715826106e2565b9261072360405194856106ac565b828452602083830101116106a857815f926020809301838601378301015290565b9060a06003198301126106a8576001600160a01b039160043583811681036106a8579260243590811681036106a85791604435916064359067ffffffffffffffff82116106a857610797916004016106fe565b9060843590565b60806003198201126106a8576004356001600160a01b03811681036106a85791602435916044359067ffffffffffffffff82116106a8576107e1916004016106fe565b9060643590565b908160209103126106a8575180151581036106a85790565b1561080757565b60405162461bcd60e51b8152602060048201526015602482015274119a5c9cdd081d1c985b9cd9995c8819985a5b1959605a1b6044820152606490fd5b906040825260096040830152687472616e736665723160b81b60608301526001602060808401930152565b9392919060018060a01b0316845260206060818601528151918260608701525f5b8381106108b5575050506080815f8260409488010152601f8019910116850101930152565b818101830151878201608001528201610890565b9060408252600860408301526764656c656761746560c01b60608301526001602060808401930152565b9060408252600860408301526764656c656761746560c01b60608301525f602060808401930152565b1561092357565b60405162461bcd60e51b815260206004820152601660248201527514d958dbdb99081d1c985b9cd9995c8819985a5b195960521b6044820152606490fd5b3d1561098b573d90610972826106e2565b9161098060405193846106ac565b82523d5f602084013e565b606090565b1561099757565b60405162461bcd60e51b815260206004820152601c60248201527f4669727374206e6174697665207472616e73666572206661696c6564000000006044820152606490fd5b9060408252601060408301526f6e61746976655f7472616e736665723160801b60608301526001602060808401930152565b15610a1557565b60405162461bcd60e51b815260206004820152601d60248201527f5365636f6e64206e6174697665207472616e73666572206661696c65640000006044820152606490fdfe9f4d25774676d497fe3d8c1e43709b68b186fad01b05798c1410a178ff4ed7d0a26469706673582212209828da0fad34acc382c5f6e2e016ef5f88bf747fdacc2b9ec5f0431514fe5aba64736f6c63430008140033",
  "linkReferences": {},
  "deployedLinkReferences": {},
  "immutableReferences": {},
  "inputSourceName": "project/solidity/SequentialOperationsTester.sol",
  "buildInfoId": "solc-0_8_20-a1f91ec3b065d50730c0367f861277c93634d90c"
}