{
  "_format": "hh-sol-artifact-1",
  "contractName": "BankCaller",
  "sourceName": "solidity/precompiles/bank/testdata/BankCaller.sol",
  "abi": [
    {
      "inputs": [
        {
          "internalType": "address",
          "name": "account",
          "type": "address"
        }
      ],
      "name": "callBalances",
      "outputs": [
        {
          "components": [
            {
              "internalType": "address",
              "name": "contractAddress",
              "type": "address"
            },
            {
              "internalType": "uint256",
              "name": "amount",
              "type": "uint256"
            }
          ],
          "internalType": "struct Balance[]",
          "name": "balances",
          "type": "tuple[]"
        }
      ],
      "stateMutability": "view",
      "type": "function"
    },
    {
      "inputs": [
        {
          "internalType": "address",
          "name": "erc20Address",
          "type": "address"
        }
      ],
      "name": "callSupplyOf",
      "outputs": [
        {
          "internalType": "uint256",
          "name": "",
          "type": "uint256"
        }
      ],
      "stateMutability": "view",
      "type": "function"
    },
    {
      "inputs": [],
      "name": "callTotalSupply",
      "outputs": [
        {
          "components": [
            {
              "internalType": "address",
              "name": "contractAddress",
              "type": "address"
            },
            {
              "internalType": "uint256",
              "name": "amount",
              "type": "uint256"
            }
          ],
          "internalType": "struct Balance[]",
          "name": "totalSupply",
          "type": "tuple[]"
        }
      ],
      "stateMutability": "view",
      "type": "function"
    },
    {
      "inputs": [
        {
          "internalType": "uint256",
          "name": "gasForward",
          "type": "uint256"
        }
      ],
      "name": "callTotalSupplyWithGas",
      "outputs": [
        {
          "internalType": "bool",
          "name": "success",
          "type": "bool"
        },
        {
          "internalType": "uint256",
          "name": "innerGasUsed",
          "type": "uint256"
        }
      ],
      "stateMutability": "view",
      "type": "function"
    }
  ],
  "bytecode": "0x608080604052346100165761045b908161001c8239f35b600080fdfe60806040908082526004908136101561001757600080fd5b600090813560e01c90816389129c681461024557508063acab2f94146101cd578063bba60ca01461012b5763d47052031461005157600080fd5b34610128576020366003190112610128575a90835192602084016318160ddd60e01b81528185528585019467ffffffffffffffff95818110878211176101155787525183918291906108048535fa933d1561010f573d9081116100fc578551906100c5601f8201601f191660200183610317565b81528260203d92013e5b5a83039283116100e9575050825191151582526020820152f35b634e487b7160e01b825260119052602490fd5b634e487b7160e01b835260418252602483fd5b506100cf565b634e487b7160e01b855260418452602485fd5b80fd5b5082346101c957602092836003193601126101c55780356001600160a01b038116908190036101c1578251631890039360e21b81529182015283816024816108045afa9283156101b6578093610184575b505051908152f35b909192508382813d83116101af575b61019d8183610317565b8101031261012857505190838061017c565b503d610193565b8251903d90823e3d90fd5b8380fd5b8280fd5b5080fd5b5091346101c557826003193601126101c55782815180936318160ddd60e01b8252816108045afa91821561023b57836102129493610216575b505051918291826102c4565b0390f35b6102339293503d8091833e61022b8183610317565b81019061034f565b903880610206565b81513d85823e3d90fd5b90508383346101c15760203660031901126101c15780356001600160a01b03811691908290036102c0576327e235e360e01b845283015282826024816108045afa91821561023b578361021294936102a357505051918291826102c4565b6102b89293503d8091833e61022b8183610317565b908380610206565b8480fd5b60208082019080835283518092528060408094019401926000905b8382106102ee57505050505090565b845180516001600160a01b031687528301518684015294850194938201936001909101906102df565b90601f8019910116810190811067ffffffffffffffff82111761033957604052565b634e487b7160e01b600052604160045260246000fd5b6020808284031261040b57815167ffffffffffffffff9283821161040b57019083601f8301121561040b57815183811161033957604093845195610398848460051b0188610317565b828752838088019360061b8601019481861161040b578401925b8584106103c3575050505050505090565b868483031261040b57865190878201828110858211176104105788528451906001600160a01b038216820361040b578287928a945282870151838201528152019301926103b2565b600080fd5b60246000634e487b7160e01b81526041600452fdfea26469706673582212206291c412c52d95f56ebd6bcace337eb3149a918c5ed8398ed4845c859755136a64736f6c63430008140033",
  "linkReferences": {},
  "deployedLinkReferences": {}
}